{
  "contractName": "Marketplace",
  "abi": [
    {
      "constant": true,
      "inputs": [],
      "name": "candidatesCount",
      "outputs": [
        {
          "name": "",
          "type": "uint256"
        }
      ],
      "payable": false,
      "stateMutability": "view",
      "type": "function"
    },
    {
      "constant": true,
      "inputs": [],
      "name": "chairperson",
      "outputs": [
        {
          "name": "",
          "type": "address"
        }
      ],
      "payable": false,
      "stateMutability": "view",
      "type": "function"
    },
    {
      "constant": true,
      "inputs": [
        {
          "name": "",
          "type": "uint256"
        }
      ],
      "name": "candidates",
      "outputs": [
        {
          "name": "id",
          "type": "uint256"
        },
        {
          "name": "name",
          "type": "string"
        },
        {
          "name": "voteCount",
          "type": "uint256"
        },
        {
          "name": "img",
          "type": "string"
        }
      ],
      "payable": false,
      "stateMutability": "view",
      "type": "function"
    },
    {
      "constant": true,
      "inputs": [],
      "name": "img",
      "outputs": [
        {
          "name": "",
          "type": "string"
        }
      ],
      "payable": false,
      "stateMutability": "view",
      "type": "function"
    },
    {
      "constant": true,
      "inputs": [],
      "name": "votersCount",
      "outputs": [
        {
          "name": "",
          "type": "uint256"
        }
      ],
      "payable": false,
      "stateMutability": "view",
      "type": "function"
    },
    {
      "constant": true,
      "inputs": [
        {
          "name": "",
          "type": "address"
        }
      ],
      "name": "voters",
      "outputs": [
        {
          "name": "",
          "type": "bool"
        }
      ],
      "payable": false,
      "stateMutability": "view",
      "type": "function"
    },
    {
      "constant": true,
      "inputs": [],
      "name": "winner",
      "outputs": [
        {
          "name": "",
          "type": "string"
        }
      ],
      "payable": false,
      "stateMutability": "view",
      "type": "function"
    },
    {
      "constant": true,
      "inputs": [],
      "name": "disp",
      "outputs": [
        {
          "name": "",
          "type": "bool"
        }
      ],
      "payable": false,
      "stateMutability": "view",
      "type": "function"
    },
    {
      "constant": true,
      "inputs": [],
      "name": "declared",
      "outputs": [
        {
          "name": "",
          "type": "bool"
        }
      ],
      "payable": false,
      "stateMutability": "view",
      "type": "function"
    },
    {
      "inputs": [],
      "payable": false,
      "stateMutability": "nonpayable",
      "type": "constructor"
    },
    {
      "anonymous": false,
      "inputs": [
        {
          "indexed": true,
          "name": "_candidateId",
          "type": "uint256"
        }
      ],
      "name": "votedEvent",
      "type": "event"
    },
    {
      "anonymous": false,
      "inputs": [
        {
          "indexed": false,
          "name": "winner",
          "type": "string"
        }
      ],
      "name": "declaredEvent",
      "type": "event"
    },
    {
      "constant": false,
      "inputs": [
        {
          "name": "_candidateId",
          "type": "uint256"
        }
      ],
      "name": "vote",
      "outputs": [],
      "payable": false,
      "stateMutability": "nonpayable",
      "type": "function"
    },
    {
      "constant": false,
      "inputs": [
        {
          "name": "_party",
          "type": "string"
        },
        {
          "name": "_img",
          "type": "string"
        }
      ],
      "name": "declare",
      "outputs": [],
      "payable": false,
      "stateMutability": "nonpayable",
      "type": "function"
    }
  ],
  "bytecode": "0x60806040523480156200001157600080fd5b506000600760006101000a81548160ff021916908315150217905550336000806101000a81548173ffffffffffffffffffffffffffffffffffffffff021916908373ffffffffffffffffffffffffffffffffffffffff160217905550620000cd6040518060400160405280601c81526020017f416c6c20496e646961205472696e616d6f6f6c20436f6e6772657373000000008152506040518060a00160405280606a815260200162001319606a91396200031360201b60201c565b6200012d6040518060400160405280601381526020017f426861756a616e2053616d616a205061727479000000000000000000000000008152506040518060c001604052806086815260200162001164608691396200031360201b60201c565b6200018d6040518060400160405280601581526020017f426861726174697961204a616e746120506172747900000000000000000000008152506040518060a0016040528060688152602001620011ea606891396200031360201b60201c565b620001ed6040518060400160405280601881526020017f436f6d6d756e697374205061727479204f6620496e64696100000000000000008152506040518060a0016040528060688152602001620012b1606891396200031360201b60201c565b6200024d6040518060400160405280601781526020017f496e646961204e6174696f6e616c20436f6e67726573730000000000000000008152506040518060c001604052806096815260200162001066609691396200031360201b60201c565b620002ad6040518060400160405280601a81526020017f4e6174696f6e616c69737420436f6e67726573732050617274790000000000008152506040518060a0016040528060688152602001620010fc606891396200031360201b60201c565b6200030d6040518060400160405280601781526020017f4e6174696f6e616c2050656f706c6527732050617274790000000000000000008152506040518060800160405280605f815260200162001252605f91396200031360201b60201c565b62000466565b60036000815480929190600101919050555060405180608001604052806003548152602001838152602001600081526020018281525060026000600354815260200190815260200160002060008201518160000155602082015181600101908051906020019062000386929190620003b7565b50604082015181600201556060820151816003019080519060200190620003af929190620003b7565b509050505050565b828054600181600116156101000203166002900490600052602060002090601f016020900481019282601f10620003fa57805160ff19168380011785556200042b565b828001600101855582156200042b579182015b828111156200042a5782518255916020019190600101906200040d565b5b5090506200043a91906200043e565b5090565b6200046391905b808211156200045f57600081600090555060010162000445565b5090565b90565b610bf080620004766000396000f3fe608060405234801561001057600080fd5b50600436106100a95760003560e01c8063426bfd0011610071578063426bfd00146103b757806398c079381461043a578063a3ec138d14610458578063dfbf53ae146104b4578063ed48354214610537578063fd2ed72a14610559576100a9565b80630121b93f146100ae5780632d35a8a2146100dc5780632e4176cf146100fa5780633477ee2e146101445780633fee34ff14610265575b600080fd5b6100da600480360360208110156100c457600080fd5b810190808035906020019092919050505061057b565b005b6100e46106ac565b6040518082815260200191505060405180910390f35b6101026106b2565b604051808273ffffffffffffffffffffffffffffffffffffffff1673ffffffffffffffffffffffffffffffffffffffff16815260200191505060405180910390f35b6101706004803603602081101561015a57600080fd5b81019080803590602001909291905050506106d7565b604051808581526020018060200184815260200180602001838103835286818151815260200191508051906020019080838360005b838110156101c05780820151818401526020810190506101a5565b50505050905090810190601f1680156101ed5780820380516001836020036101000a031916815260200191505b50838103825284818151815260200191508051906020019080838360005b8381101561022657808201518184015260208101905061020b565b50505050905090810190601f1680156102535780820380516001836020036101000a031916815260200191505b50965050505050505060405180910390f35b6103b56004803603604081101561027b57600080fd5b810190808035906020019064010000000081111561029857600080fd5b8201836020820111156102aa57600080fd5b803590602001918460018302840111640100000000831117156102cc57600080fd5b91908080601f016020809104026020016040519081016040528093929190818152602001838380828437600081840152601f19601f8201169050808301925050505050505091929192908035906020019064010000000081111561032f57600080fd5b82018360208201111561034157600080fd5b8035906020019184600183028401116401000000008311171561036357600080fd5b91908080601f016020809104026020016040519081016040528093929190818152602001838380828437600081840152601f19601f820116905080830192505050505050509192919290505050610837565b005b6103bf610997565b6040518080602001828103825283818151815260200191508051906020019080838360005b838110156103ff5780820151818401526020810190506103e4565b50505050905090810190601f16801561042c5780820380516001836020036101000a031916815260200191505b509250505060405180910390f35b610442610a35565b6040518082815260200191505060405180910390f35b61049a6004803603602081101561046e57600080fd5b81019080803573ffffffffffffffffffffffffffffffffffffffff169060200190929190505050610a3b565b604051808215151515815260200191505060405180910390f35b6104bc610a5b565b6040518080602001828103825283818151815260200191508051906020019080838360005b838110156104fc5780820151818401526020810190506104e1565b50505050905090810190601f1680156105295780820380516001836020036101000a031916815260200191505b509250505060405180910390f35b61053f610af9565b604051808215151515815260200191505060405180910390f35b610561610b0c565b604051808215151515815260200191505060405180910390f35b600160003373ffffffffffffffffffffffffffffffffffffffff1673ffffffffffffffffffffffffffffffffffffffff16815260200190815260200160002060009054906101000a900460ff16156105d257600080fd5b6000811180156105e457506003548111155b6105ed57600080fd5b60018060003373ffffffffffffffffffffffffffffffffffffffff1673ffffffffffffffffffffffffffffffffffffffff16815260200190815260200160002060006101000a81548160ff0219169083151502179055506002600082815260200190815260200160002060020160008154809291906001019190505550600460008154809291906001019190505550807ffff3c900d938d21d0990d786e819f29b8d05c1ef587b462b939609625b684b1660405160405180910390a250565b60035481565b6000809054906101000a900473ffffffffffffffffffffffffffffffffffffffff1681565b6002602052806000526040600020600091509050806000015490806001018054600181600116156101000203166002900480601f0160208091040260200160405190810160405280929190818152602001828054600181600116156101000203166002900480156107895780601f1061075e57610100808354040283529160200191610789565b820191906000526020600020905b81548152906001019060200180831161076c57829003601f168201915b505050505090806002015490806003018054600181600116156101000203166002900480601f01602080910402602001604051908101604052809291908181526020018280546001816001161561010002031660029004801561082d5780601f106108025761010080835404028352916020019161082d565b820191906000526020600020905b81548152906001019060200180831161081057829003601f168201915b5050505050905084565b6000809054906101000a900473ffffffffffffffffffffffffffffffffffffffff1673ffffffffffffffffffffffffffffffffffffffff163373ffffffffffffffffffffffffffffffffffffffff161461089057600080fd5b81600690805190602001906108a6929190610b1f565b5080600890805190602001906108bd929190610b1f565b506001600760006101000a81548160ff0219169083151502179055507ff8b2abd2830ffe4c21fdf2ba34116130cc339ea756ba0235abb80dcd8168ab7d600660405180806020018281038252838181546001816001161561010002031660029004815260200191508054600181600116156101000203166002900480156109855780601f1061095a57610100808354040283529160200191610985565b820191906000526020600020905b81548152906001019060200180831161096857829003601f168201915b50509250505060405180910390a15050565b60088054600181600116156101000203166002900480601f016020809104026020016040519081016040528092919081815260200182805460018160011615610100020316600290048015610a2d5780601f10610a0257610100808354040283529160200191610a2d565b820191906000526020600020905b815481529060010190602001808311610a1057829003601f168201915b505050505081565b60045481565b60016020528060005260406000206000915054906101000a900460ff1681565b60068054600181600116156101000203166002900480601f016020809104026020016040519081016040528092919081815260200182805460018160011615610100020316600290048015610af15780601f10610ac657610100808354040283529160200191610af1565b820191906000526020600020905b815481529060010190602001808311610ad457829003601f168201915b505050505081565b600560009054906101000a900460ff1681565b600760009054906101000a900460ff1681565b828054600181600116156101000203166002900490600052602060002090601f016020900481019282601f10610b6057805160ff1916838001178555610b8e565b82800160010185558215610b8e579182015b82811115610b8d578251825591602001919060010190610b72565b5b509050610b9b9190610b9f565b5090565b610bc191905b80821115610bbd576000816000905550600101610ba5565b5090565b9056fea165627a7a72305820a8c735b345cfc3308bb75ce8763ac242469198205bbf121503aea9045ece680b002968747470733a2f2f75706c6f61642e77696b696d656469612e6f72672f77696b6970656469612f636f6d6d6f6e732f7468756d622f342f34352f466c61675f6f665f7468655f496e6469616e5f4e6174696f6e616c5f436f6e67726573732e7376672f3132303070782d466c61675f6f665f7468655f496e6469616e5f4e6174696f6e616c5f436f6e67726573732e7376672e706e6768747470733a2f2f656e637279707465642d74626e302e677374617469632e636f6d2f696d616765733f713d74626e3a414e64394763516f5f2d6f6d39766a437743554469664331336d777867667a39655a44724d535f3646707835375a6d697a6654767443573968747470733a2f2f75706c6f61642e77696b696d656469612e6f72672f77696b6970656469612f636f6d6d6f6e732f7468756d622f642f64322f456c657068616e745f426168756a616e5f53616d616a5f50617274792e7376672f3230303070782d456c657068616e745f426168756a616e5f53616d616a5f50617274792e7376672e706e6768747470733a2f2f656e637279707465642d74626e302e677374617469632e636f6d2f696d616765733f713d74626e3a414e6439476352704a6c36634a4556504379317859517231326b6348497545535874484e367048746d51476f39496d726544386a5f524f2d68747470733a2f2f62736d656469612e627573696e6573732d7374616e646172642e636f6d2f5f6d656469612f62732f696d672f61727469636c652f323031382d31302f33302f66756c6c2f313534303839383438392d343035392e6a706768747470733a2f2f656e637279707465642d74626e302e677374617469632e636f6d2f696d616765733f713d74626e3a414e643947635335796e5372762d68526e2d6457627a6e726f506f73414a68537953584172715947646d634a69596c2d424f54705034565668747470733a2f2f656e637279707465642d74626e302e677374617469632e636f6d2f696d616765733f713d74626e3a414e64394763545038574350504c704a456a503868504732506d3974592d7133426f63664a596c48535f34456a674f78793754346d6462565651",
  "source": "pragma solidity >=0.4.22 <0.6.0;\n\ncontract Marketplace {\n    // Model a Candidate\n    struct Candidate {\n        uint id;\n        string name;\n        uint voteCount;\n        string img;\n    }\n\n    // Store accounts that have voted\n    address public chairperson;\n    mapping(address => bool) public voters;\n    // Store Candidates\n    // Fetch Candidate\n    mapping(uint => Candidate) public candidates;\n    // Store Candidates Count\n    uint public candidatesCount;\n    uint public votersCount;\n    bool public disp;\n    string public winner;\n    bool public declared;\n    string public img;\n\n    event votedEvent (\n        uint indexed _candidateId\n    );\n\n    event declaredEvent(\n        string winner\n    );\n\n   \n\n       constructor() public {\n           declared = false;\n        chairperson=msg.sender;\n        addCandidate(\"All India Trinamool Congress\",\"https://encrypted-tbn0.gstatic.com/images?q=tbn:ANd9GcTP8WCPPLpJEjP8hPG2Pm9tY-q3BocfJYlHS_4EjgOxy7T4mdbVVQ\");\n        addCandidate(\"Bhaujan Samaj Party\",\"https://upload.wikimedia.org/wikipedia/commons/thumb/d/d2/Elephant_Bahujan_Samaj_Party.svg/2000px-Elephant_Bahujan_Samaj_Party.svg.png\");\n        addCandidate(\"Bharatiya Janta Party\",\"https://encrypted-tbn0.gstatic.com/images?q=tbn:ANd9GcRpJl6cJEVPCy1xYQr12kcHIuESXtHN6pHtmQGo9ImreD8j_RO-\");\n        addCandidate(\"Communist Party Of India\",\"https://encrypted-tbn0.gstatic.com/images?q=tbn:ANd9GcS5ynSrv-hRn-dWbznroPosAJhSySXArqYGdmcJiYl-BOTpP4VV\");\n        addCandidate(\"India National Congress\",\"https://upload.wikimedia.org/wikipedia/commons/thumb/4/45/Flag_of_the_Indian_National_Congress.svg/1200px-Flag_of_the_Indian_National_Congress.svg.png\");\n        addCandidate(\"Nationalist Congress Party\",\"https://encrypted-tbn0.gstatic.com/images?q=tbn:ANd9GcQo_-om9vjCwCUDifC13mwxgfz9eZDrMS_6Fpx57ZmizfTvtCW9\");\n        addCandidate(\"National People's Party\",\"https://bsmedia.business-standard.com/_media/bs/img/article/2018-10/30/full/1540898489-4059.jpg\");\n    }\n\n    function addCandidate (string memory _name, string memory _img) private {\n        candidatesCount ++;\n        candidates[candidatesCount] = Candidate(candidatesCount, _name, 0, _img);\n    }\n\n\n  \n\n    function vote (uint _candidateId) public {\n        // require that they haven't voted before\n        require(!voters[msg.sender]);\n\n        // require a valid candidate\n        require(_candidateId > 0 && _candidateId <= candidatesCount);\n\n        // record that voter has voted\n        voters[msg.sender] = true;\n\n        // update candidate vote Count\n        candidates[_candidateId].voteCount ++;\n        votersCount++;\n        // trigger voted event\n        emit votedEvent(_candidateId);\n    }\n\n   function declare(string memory _party, string memory _img) public {\n       require(msg.sender == chairperson);\n\n        winner = _party;\n        img = _img;\n        declared =true;\n        emit declaredEvent(winner);\n\n   }\n\n}\n\n",
  "sourcePath": "D:/codefundo/react_truffle/marketplace-master/src/contracts/Marketplace.sol",
  "compiler": {
    "name": "solc",
    "version": "0.5.8+commit.23d335f2.Emscripten.clang"
  },
  "schemaVersion": "3.0.12",
  "updatedAt": "2019-08-19T17:45:30.162Z",
  "devdoc": {
    "methods": {}
  },
  "userdoc": {
    "methods": {}
  }
}